:020000040800F2
:100000001821002029020008E71D0008451A0008F1
:10001000E51D0008EB060008A7200008000000000E
:100020000000000000000000000000009101000836
:10003000B109000800000000D5010008E91D000812
:10004000430200084302000843020008430200087C
:10005000430200084302000843020008430200086C
:10006000430200084302000843020008430200085C
:10007000430200084302000843020008430200084C
:10008000430200084302000843020008430200083C
:1000900043020008000000000000000043020008C6
:1000A0000000000000000000000000000000000050
:1000B000551E0008430200084302000843020008DE
:1000C00043020008430200084302000843020008FC
:1000D00043020008430200084302000843020008EC
:1000E00043020008430200084302000800F002F83F
:1000F00000F03FF80AA090E8000C82448344AAF183
:100100000107DA4501D100F034F8AFF2090EBAE880
:100110000F0013F0010F18BFFB1A43F0010318473B
:100120006C4000008C400000103A24BF78C878C1B1
:10013000FAD8520724BF30C830C144BF04680C60ED
:10014000704700000023002400250026103A28BF35
:1001500078C1FBD8520728BF30C148BF0B60704739
:10016000642900F0E380002070471FB51FBD10B563
:1001700010BD00F080FA1146FFF7F7FF01F0F6FF1F
:1001800000F09EFA03B4FFF7F2FF03BC00F0A6FAFA
:10019000224B19680868B0E8F00F80F30988BFF3B4
:1001A0006F8F4FF0000080F311884EF00D0E7047F6
:1001B0000000000006480068006880F3088862B606
:1001C00061B6BFF34F8FBFF36F8F00DF00BF00BF7B
:1001D00008ED00E0EFF30980BFF36F8F0F4B1A6853
:1001E00020E9F00F106008B54FF0500080F311883F
:1001F000BFF34F8FBFF36F8F03F0A0F84FF00000F5
:1002000080F31188BDE8084019680868B0E8F00F6D
:1002100080F30988BFF36F8F704700BF280000206C
:10022000EFF3058070470000094880470948004700
:10023000FEE7FEE7FEE7FEE7FEE7FEE7FEE7FEE796
:10024000FEE7FEE704480549054A064B70470000F3
:10025000531E0008ED000008181B00201821002084
:10026000181D0020181D00200FB41CB5074B06AA4E
:100270007B4469460090059800F089F900206946A2
:1002800000F098F91CBC5DF814FB0000410300006D
:100290000FB41CB50C0007AA009001D02044401EEA
:1002A000074B7B4469460190069800F070F9002CDA
:1002B00003D06946002000F07DF91CBC5DF814FBFA
:1002C000190300002DE9F0410E460446002020628B
:1002D0002046E168884730B3252805D0D4E90121BC
:1002E0009047206A401CF2E7E168204600278847D3
:1002F000050018D0A5F14100192802D820354FF487
:1003000000673246294620462760FFF729FF40B1A3
:10031000012804D0F61D26F007060836D8E7361D5A
:10032000D6E72846DAE7206ABDE8F0812DE9F041FA
:100330000646002410687529314616A510D0AFF383
:100340000080002802DA404213A507E031688A07DE
:1003500001D512A502E0490704D511A5012401E049
:10036000AFF3008000210A2206F1240709E0B0FB68
:10037000F2FCB0FBF2F302FB1C003030785418465C
:10038000491C0028F3D123462A463046BDE8F041F7
:1003900000F09EB8000000002D0000002B000000BF
:1003A0002000000010B5431C02E010F8011B71B1E1
:1003B0008107FAD14FF0013202C88C1A8C4314EA3B
:1003C000C211F9D0C01A0A0603D0C01E10BDC01A4F
:1003D00010BD0A0401D0801E10BD0902FCD0401ED1
:1003E00010BD032A40F2308010F0030C00F015809D
:1003F00011F8013BBCF1020F624498BF11F801CB28
:1004000000F8013B38BF11F8013BA2F1040298BF8C
:1004100000F801CB38BF00F8013B11F0030300F0F6
:10042000D680083AC0F0088051F8043B083A51F8E9
:1004300004CBA0E80810F5E7121D5CBF51F8043B9F
:1004400040F8043BAFF30080D20724BF11F8013B12
:1004500011F801CB48BF11F8012B24BF00F8013B74
:1004600000F801CB48BF00F8012B704702F0FF03F2
:1004700043EA032242EA024200F0DDB84FF00002F4
:1004800000B5134694469646203922BFA0E80C508A
:10049000A0E80C50B1F12001BFF4F7AF090728BF65
:1004A000A0E80C5048BF0CC05DF804EB890028BFE1
:1004B00040F8042B08BF704748BF20F8022B11F00A
:1004C000804F18BF00F8012B704770477047704786
:1004D0002DE9F0470D4699469246044600F124085E
:1004E0000168880604D5E06921F01001216000E070
:1004F0000120A84201DD471B00E00027A1697A190D
:1005000002EB0900081AA0612078C00602D4204638
:10051000AFF30080002608E0D4E901211AF80600B4
:100520009047206A401C761C20624E45F4DB207800
:10053000C0060AD52046AFF3008006E0D4E90121C9
:1005400030209047206A401C2062381EA7F1010726
:10055000F4DC07E0D4E9012118F805009047206A8F
:10056000401C2062281EA5F10105F3DC2046AFF3F4
:1005700000802078000602D50220BDE8F087012027
:10058000FBE7000001694A1C02610878704700B56A
:100590008FB0CDE901310021059105497944CDE9BC
:1005A000031011466846FFF78DFE0FB000BD000036
:1005B000E5FFFFFF0A6802F8010B0A607047D1E906
:1005C00000239A4202D2531C0B601070704710B582
:1005D000203AC0F00B80B1E81850203AA0E818503B
:1005E000B1E81850A0E81850BFF4F5AF5FEA027CFC
:1005F00024BFB1E81850A0E8185044BF18C918C06B
:10060000BDE810405FEA827C24BF51F8043B40F80B
:10061000043B08BF7047D20728BF31F8023B48BFF0
:1006200011F8012B28BF20F8023B48BF00F8012B2E
:1006300070474FF000020429C0F0128010F0030C44
:100640003FF41EAFCCF1040CBCF1020F18BF00F850
:10065000012BA8BF20F8022BA1EB0C01FFF710BF64
:100660005FEAC17C24BF00F8012B00F8012B48BFD2
:1006700000F8012B7047754600F02CF8AE460500D7
:100680006946534620F00700854618B020B5FFF7AD
:10069000D9FDBDE820404FF000064FF000074FF0B5
:1006A00000084FF0000B21F00701AC46ACE8C00990
:1006B000ACE8C009ACE8C009ACE8C0098D46704799
:1006C00010B50446AFF300802046BDE81040FFF7A8
:1006D00059BD000000487047B41A00200149182095
:1006E000ABBEFEE7260002007047FEE710B50446E9
:1006F0000298216022716371A0712820A0720620E7
:10070000E0710C202072142060720820E072322008
:1007100000F050F900223321204600F069F8002251
:100720003321204600F064F8052000F043F9002250
:100730003221204600F05CF8052000F03BF9002251
:100740002021204600F054F8052000F033F9E1792B
:100750000022204600F04CF8217A0022204600F0CA
:1007600047F8617A0022204600F042F8A17A002280
:10077000204600F03DF800220121204600F038F824
:1007800020460022BDE81040022100F031B830B40C
:10079000447900238C4201D8641EE1B284799442EA
:1007A00001D8641EE2B232B1012A06D0022A06D074
:1007B000032A06D007E00B4605E0403102E0143181
:1007C00000E05431CBB230BC43F08001002200F095
:1007D0000FB8012200F00CB870B50C46054603E0D6
:1007E0002846641CFFF7F5FF21780029F8D170BD79
:1007F0007CB506460807040EF07A01F0F00518B142
:1008000045F0080544F00804012A01D02AB108E0A7
:1008100045F0010544F0010403E025F0010524F052
:10082000010445F004008DF80400012000F0C2F836
:100830008DF8055044F004008DF80600012000F00A
:10084000B9F84FF47A708DF807400090317904239D
:1008500001AA306800F074FA7CBD000070B5002475
:10086000282001F031FC0B4E4FF4804529463046DC
:1008700000F092F940B9502001F026FC294630469C
:1008800000F08AF900B10124282001F01DFC204667
:1008900070BD0000000C01402DE9FF4789468046ED
:1008A00000F05CF8FFF7DAFFB0B100F027F805467A
:1008B00000F024F8074600F021F8044600F01EF886
:1008C000064600F01BF8E91921443144814203D166
:1008D00088F8005089F800404FF4804000901120C3
:1008E000019001200290022003906946024800F026
:1008F00073F8BDE8FF870000000C01402DE9F041CE
:100900000025154E2C464FF001084FF4804739461C
:10091000304600F041F90028F9D0282001F0D4FB3E
:100920003946304600F038F90028C4F1070108FACA
:1009300001F00ED02843C5B23946304600F02CF9FC
:100940000028F9D1641CE4B2082CE0D32846BDE8A5
:10095000F0818543F0E70000000C01407FB54FF4C3
:1009600080451120CDE900500120029002200F4E59
:10097000039000246946304600F02EF800222946F4
:10098000304600F00EF9122000F014F8012229463A
:10099000304600F006F91E2001F096FB01946946EE
:1009A0003046029400F018F87FBD0000000C0140B2
:1009B0007047000070B5044600F0F8F80546601C6A
:1009C00002D004480078044400F0F0F8401BA04234
:1009D000FAD370BD180000202DE9F84FDFF89C9184
:1009E0000024A9F1040B23460F2709F1040AABF1F7
:1009F000040EBBE00125A5402A40AA4276D1DFF8CB
:100A000080C14E68A6EB0C0866452BD00DDC032E8A
:100A100034D005DC36B3012E19D0022E2FD11BE0C5
:100A2000112E16D0122E2AD119E0B8F5881F19D030
:100A300006DCB8F5803F15D0B8F5801F1FD111E056
:100A4000B8F5001F0ED0B8F5041F18D10AE0CB6826
:100A500015E0CB681B1D12E0CB6808330FE0CB68B4
:100A60000C330CE08B682BB1012B4FF0080303D043
:100A7000456104E0042302E0056100E00023FF2A51
:100A800001D8064601E000F104064FEA840501D9C9
:100A9000A5F12005D6F8008007FA05FC28EA0C0825
:100AA00003FA05F548EA0508C6F800804D68ED0030
:100AB0005BD5344DAE6946F00106AE61AD6924F0F8
:100AC000030605F0010500952F4D06EB050CDCF83B
:100AD0000850A607360F07FA06F825EA0805DFF8DA
:100AE000AC80404503D14FF0000810E03DE0DFF856
:100AF000A080404502D14FF0010808E0DFF8948063
:100B0000404502D14FF0020801E04FF0030808FA17
:100B100006F848EA0508CCF808804D68D9F8006066
:100B2000ED024D4601D5164300E096432E604D6818
:100B3000DAF80060AD02554601D5164300E0964351
:100B40002E604D68DBF80060AD035D4601D51643AD
:100B500000E096432E604D68DEF80060ED037546B8
:100B600001D5164300E096432E60641C0A6832FAF1
:100B700004F57FF43FAFBDE8F88F000008040140A2
:100B80000000111000100240000001400008014068
:100B9000000C0140001001408068084000D0012096
:100BA00070470AB1016170470904FBE7014880689A
:100BB000704700001800002070B5040025D094F89C
:100BC0003D00002520B984F83C50204600F04EF945
:100BD000242084F83D002068016821F001010160B3
:100BE0002068016841F4004101602068016821F437
:100BF0000041016000F0E8FA4D4A6168914201D875
:100C00004C4900E04C49884201D2012070BD4B495B
:100C10002368B0FBF1F15E6826F03F060E435E608C
:100C20006368934206D94FF4967359434FF47A732D
:100C3000B1FBF3F12368491C1E6A26F03F063143DD
:100C400019626168914210D84900401EB0FBF1F270
:100C5000521CC2F30B02042A01D2042022E0B0FB92
:100C6000F1F0401CC0F30B001CE0A268F2B301EBF2
:100C7000C10303EB0116431EB3FBF6F35B1C43F405
:100C800080431B0549D092B301EBC10202EB011175
:100C9000401EB0FBF1F0401CC0F30B0040F480405C
:100CA00040F400402168CA694CF6FF739A43104330
:100CB000C861D4E9071001432068026822F0C0022D
:100CC00011430160D4E9030101432068826848F2BE
:100CD000FF339A4311438160D4E905010843216839
:100CE000CA6822F0FF021043C86001E00EE016E07F
:100CF0002068016841F0010101602564202084F82A
:100D00003D00256384F83E50002070BD01EB410694
:100D1000431EB3FBF6F35B1CB3E70120C2E701EB14
:100D20004101401EB0FBF1F0401CC0F30B00B7E7DF
:100D3000A086010080841E0000093D0040420F0093
:100D40002DE9F84F1F4690468A460446DDF8289064
:100D5000FFF72CFF054694F83D0020287FD119238A
:100D6000012240492046009500F0FEFE002876D181
:100D700094F83C00012872D0012084F83C002068DF
:100D80000168C90703D1016841F0010101602068D1
:100D9000016821F400610160212084F83D001020E9
:100DA00084F83E0000262664C4F824806785608DA0
:100DB00020852D48E0622B464A465146204600F0E9
:100DC00059FE90B9206841698069009036E02A4652
:100DD0004946204600F06EFF50B1206C042804D133
:100DE0002068016841F4007101600120BDE8F88FBE
:100DF000606A216800780861606A401C6062618DE9
:100E0000491E6185218D491E89B221852268536959
:100E1000DB435B070BD451B100781061606A401C62
:100E20006062608D401E6085208D401E20852A46B0
:100E30004946204600F06CFE0028CED1208D0028C7
:100E4000C5D154F83D0B016841F4007101602020C8
:100E500004F81E09E67766770020C7E7FFE702205F
:100E6000C4E70000020010000000FFFF10B586B0CC
:100E70000021009101910291039100680F4988427D
:100E80001AD10F4CA06940F00800A061A069694622
:100E900000F008000490C020009012200190032070
:100EA00003900848FFF798FDE06940F40010E06106
:100EB000E06900F40010049006B010BD005400403A
:100EC00000100240000C0140024881680278114481
:100ED0008160704718000020074810B5016841F094
:100EE00010010160032000F0A7F80F2000F006F8C1
:100EF00000F050F8002010BD0020024030B505463B
:100F0000204887B0C16941F00101C161C06906A9EB
:100F100000F00100009001A800F036F90498B8B183
:100F200000F052F9400018494FF08042B0FBF1F157
:100F30001648491E0260416040F2E7320021C0E9D4
:100F400003218160816100F047FB040003D015E0BC
:100F500000F03AF9E7E70D4800F080FB04000DD1FE
:100F60001C2000F03BF8102D07D2002229461C203F
:100F700000F042F80648056000E0012407B0204672
:100F800030BD00000010024040420F0098010020D8
:100F90001C0000200F4808B5816941F00101816102
:100FA000816901F001010091C16941F08051C16185
:100FB000C069002200F0805000900F21901E00F0C8
:100FC0001BF80548416821F0E06141F00071416083
:100FD00008BD00000010024000000140002809DBAD
:100FE00000F01F02012191404009800000F1E02043
:100FF000C0F8001170470000F0B40E4B1B680C469F
:10100000C3F30223C3F10705042D00D90425191DDC
:10101000072901D2002300E0DB1E012606FA05F1B4
:10102000491E214099409E40761E16403143F0BC37
:1010300001F03AB80CED00E0064900F0070208683C
:101040004FF6FF03184040EA0220034A10430860AD
:10105000704700000CED00E00000FA052DE9F047B4
:101060000F46050061D0434E306800F00700B842DB
:1010700009D2306820F0070038433060306800F053
:101080000700B84251D128683B4C810712D5400770
:1010900003D5606840F4E06060602878000703D5FD
:1010A000606840F4605060606068A96820F0F000FB
:1010B000084360602878C00728D06868012810D0ED
:1010C0002168022810D0890700292EDA616821F0F2
:1010D000030101436160FFF769FD804641F28839F1
:1010E0000DE021688903EFE78901EDE7FFF75EFD79
:1010F000A0EB0801494502D90320BDE8F0876068EC
:10110000696800F00C00B0EB810FEFD1306800F09F
:101110000700B8420BD9306820F007003843306030
:10112000306800F00700B84201D00120E5E72878D8
:10113000400705D56068E96820F4E0600843606016
:101140002878000706D56068296920F4605040EAD5
:10115000C100606000F058F86168084AC1F30311EB
:10116000515CC8400649086006480068FFF7C6FEA3
:101170000020C2E700200240001002404E4100085B
:10118000240000201C0000200F2202600C4A53683B
:1011900003F003034360536803F0F0038360536874
:1011A00003F4E063C36052684FF4E06303EAD202E1
:1011B00002610448006800F0070008607047000002
:1011C00000100240002002400448054900684968B8
:1011D000044AC1F30221515CC8407047240000203A
:1011E000001002405E410008044805490068496853
:1011F000044AC1F3C221515CC8407047240000205A
:10120000001002405E4100080E4A51680E4801F08D
:101210000C03042B11D0082B0FD10C48C1F38343CE
:10122000C903C05C0AD55168084AC1F34041921E07
:10123000515C054A5043B0FBF1F070470449484304
:10124000704700000010024000127A003E41000882
:1012500000093D002DE9F84F040070D02078C04D02
:10126000C00749D06868C0F38100012807D06868CA
:10127000C0F38100022809D16868C00306D5286838
:10128000800339D560680028E7D035E06068B0F5A4
:10129000803F0BD010B1B0F5A02F11D0286820F4FA
:1012A00080302860286820F4802002E0286840F41C
:1012B00080302860606890B1FFF778FC06460AE04D
:1012C000286840F480202860F0E700BFFFF76EFC3C
:1012D000801B642873D828688003F7D50CE0FFF7DB
:1012E00065FC064605E000BFFFF760FC801B642834
:1012F000F0D828688003F7D420789A4E80074FF002
:1013000001094FF0000839D5686810F00C0F07D0BC
:101310006868C0F38100022809D16868C00306D458
:101320002868800714D52069012808D110E02069B9
:10133000B0B1C6F80090FFF739FC074605E00AE1B6
:10134000FFF734FCC01B0228C4D828688007F7D5F3
:101350002868616920F0F80040EAC10028600DE0CB
:10136000C6F80080FFF722FC074604E0FFF71EFCEA
:10137000C01B022823D828688007F7D420780007EC
:101380002CD57948A169D9B1C0F80090FFF70EFCBF
:10139000074604E0FFF70AFCC01B02280FD8686A62
:1013A0008007F7D571484FF4FA510068B0FBF1F0AF
:1013B000009000BF0098411E0091FAD20EE080E03C
:1013C000C0F80080FFF7F2FB074604E0FFF7EEFBF2
:1013D000C01B022875D8686A8007F7D420784007B8
:1013E00060D5E8690027C00008D4E86940F0805063
:1013F000E861E869012700F0805000905C480168CE
:10140000C90513D40168834641F480710160FFF778
:10141000CDFB824606E000BFFFF7C8FBA0EB0A0049
:1014200064284ED8DBF80000C005F5D5E068012837
:101430000AD008B1052813D0286A20F001002862DC
:10144000286A20F0040002E0286A40F001002862C7
:10145000E06841F2883B98B1FFF7A8FB82460BE0B9
:10146000286A40F004002862EEE700BFFFF79EFB09
:10147000A0EB0A0159455AD8286A8007F6D50CE036
:10148000FFF794FB824605E0FFF790FBA0EB0A0113
:1014900059454CD8286A8007F6D41FB1E86920F076
:1014A0008050E861E06988B36968C1F3810102296D
:1014B00044D00228C6F8608004D0FFF777FB0446CA
:1014C00038E034E0FFF772FB074604E0FFF76EFBFD
:1014D000C01B02282BD828688001F7D4206AB0F5F9
:1014E000803F05D16868A16820F400300843686037
:1014F000D4E908010843696821F47411084368605D
:10150000C6F86090FFF752FB044606E025E000BFF6
:10151000FFF74CFB001B022809D828688001F7D58B
:101520001BE000BFFFF742FB001B022802D903208B
:10153000BDE8F88F28688001F4D40EE00128F7D0C8
:101540006868226A00F48031914204D1616A00F433
:101550007010884201D00120EAE70020E8E700008F
:101560000010024000004242800442422400002059
:10157000007000407047704770B590F83C20012A19
:1015800023D0012480F83C40022280F83D200368EB
:101590005A689D6822F070060A6832435A600268F1
:1015A000B2F1804F05D00A4B9A4202D0094B9A42C1
:1015B00004D1496825F080031943916080F83D40CB
:1015C000002180F83C10084670BD022070BD00006C
:1015D000000400400008004010B5040003D094F857
:1015E0003D0010B107E0012010BD002084F83C0050
:1015F000204600F01FF8022084F83D00211D2068DD
:1016000000F02EFC012084F8460084F83E0084F8A7
:101610003F0084F8400084F8410084F8420084F8D8
:10162000430084F8440084F8450084F83D0000201D
:1016300010BD000008B500680649884208D1064878
:10164000C16941F00401C161C06900F0040000906B
:1016500008BD0000000800400010024090F83D1056
:10166000012901D001207047022180F83D10016856
:10167000CA6842F00102CA600068B0F1804F05D02C
:101680000849884202D00849884204D1816801F0A3
:101690000701062903D0016841F001010160002023
:1016A00070470000000400400008004070B5044688
:1016B00090F83C000025012817D0012684F83C60F2
:1016C000022084F83D002068826822F0770222F42C
:1016D0007F4282600868502838D00DDC20284FD027
:1016E00005DC90B3102811D14AE0022070BD3028EB
:1016F00046D040280AD13BE060282FD070280DD07A
:10170000B0F5805F03D0B0F5005F12D0012584F8FA
:101710003D60002084F83C00284670BDCB68D1E9CC
:101720000121206800F0CEFB2068816841F077013C
:1017300009E0CB68D1E90121206800F0C3FB2068F3
:10174000816841F480418160E1E719E0CA68496835
:10175000206800F0C9FB5021206806E0CA6849688B
:10176000206800F0D2FB6021206800F0B5FBCEE7D6
:10177000CA684968206800F0B7FB40212068F4E798
:10178000226801461046F0E770472DE9F041044613
:101790000068C66805694FF00007A90713D5B107AF
:1017A00011D5F91E0161012020772068806980072A
:1017B000204602D0FFF7E8FF04E000F07EF8204664
:1017C00000F07CF82777680716D5700714D52168D4
:1017D0006FF004000861022020772068806910F40F
:1017E000407F204602D0FFF7CFFF04E000F065F80D
:1017F000204600F063F82777280715D5300713D562
:1018000021686FF008000861042020772068C06913
:101810008007204602D0FFF7B7FF04E000F04DF844
:10182000204600F04BF82777E80616D5F00614D5C9
:1018300021686FF010000861082020772068C069D7
:1018400010F4407F204602D0FFF79EFF04E000F036
:1018500034F8204600F032F82777E80708D0F00780
:1018600006D021686FF001000861204600F027F8DB
:10187000280608D5300606D521686FF0800008617B
:101880002046FFF777FE680608D5700606D5216862
:101890006FF040000861204600F018F8A8060AD54D
:1018A000B00608D521686FF0200008612046BDE829
:1018B000F041FFF760BEBDE8F081704770470068F7
:1018C000B0F1804F01D1FFF7FFBA7047704770B594
:1018D000040004D094F84100002510B106E0012076
:1018E00070BD84F84050204600F024F8242084F88D
:1018F00041002068C16821F40051C160204600F019
:101900003DFB2068016921F4904101612068416933
:1019100021F02A0141612068C16841F40051C16091
:101920006564202084F8410084F84200656300204B
:1019300070BD000030B585B000240094019402947D
:10194000039400681449884223D11448C16941F4C2
:101950000031C161C16901F400310491816941F034
:101960000401816180690E4D00F0040004900420A0
:101970000090022001900320039069462846FFF75B
:101980002BF80820CDE90004694628460294FFF7A9
:1019900023F805B030BD00000044004000100240B4
:1019A000000801402DE9F843044690F841009846AC
:1019B00016460D46202802D00220BDE8F88385B1E6
:1019C0007EB100206064212084F84100FFF7EEF82A
:1019D000A6848146E684A0682027B0F5805F02D007
:1019E00003E00120E9E7206910B12E4600250EE052
:1019F00000260CE08021204600F01CFBA8B9C6B1EF
:101A000016F8010B21684860E08C401EE084E08CF1
:101A10004B464FF00002CDF800800028EAD14FF08D
:101A20004001204600F006FB40B184F841700320DD
:101A3000C3E735F8020BC0F30800E3E784F8417010
:101A40000020BAE7FEE701684A69D24352050FD485
:101A50006FF480624A61002140F8301F20224273F7
:101A60008173026942F00402026101730120704730
:101A700000207047F8B50446C06A1E460D4617465A
:101A8000082807D0012805D010F5803F02D0206B30
:101A9000122804D12068016841F480710160134666
:101AA00000224FF001112046009600F05DF840B191
:101AB00020680068C00502D54FF400702064032040
:101AC000F8BD2069B0F5804F0ED00620216800EAED
:101AD000D51040F0F000086133463A460B492046E5
:101AE00000F08AF878B902E005F0FE0000E0E8B204
:101AF00021680861054933463A46891F204600F0AF
:101B00007BF80028DCD00120F8BD000008000100AF
:101B100070B516460D4604461EE02046FFF793FFBB
:101B200008B1012070BD681C16D0FFF73FF8801B7C
:101B3000A84200D885B920684069C04340070BD54A
:101B4000002044F8300F20216173A073216941F017
:101B5000200121612073E4E720684069C043400709
:101B6000DBD4002070BD00002DE9F04798461746F1
:101B70000D460446C1F30746DDF820902AE000BF79
:101B8000B8F1FF3F26D0FFF711F8A0EB090141455E
:101B900002D8B8F1000F1DD12068012E16D080693F
:101BA00025EA00000004000C12D00020B84211D138
:101BB000002044F8300F20216173A073216941F0A7
:101BC0002001216120730120BDE8F0874069E7E72B
:101BD0000120EBE72068012E0AD0806925EA000089
:101BE0000004000C06D00020B842C9D00020EBE76A
:101BF0004069F3E70120F7E72DE9F04798461646DC
:101C00000D4604464FF000094FF0200AC1F3074784
:101C100023E020684069C043400515D4206801686E
:101C200041F40071016021686FF480604861C4F87C
:101C3000309084F83DA084F83E90216C41F004017E
:101C4000216484F83C9021E0701C06D0FEF7AEFFC2
:101C5000A0EB0800B04203D816B1012F1FD021E03D
:101C60002068012F15D0806925EA00000004000CCF
:101C700018D000BF44F8309F84F80DA084F80E906F
:101C8000216941F02001216184F80C900120BDE818
:101C9000F087406925EA00000004000CEAD12068C2
:101CA000406901E02068806925EA00000004000C1A
:101CB000AFD1ECE770B516460D4604461EE020464F
:101CC000FFF7C1FE08B1012070BD681C16D0FEF7F9
:101CD0006DFF801BA84200D885B920684069C043C9
:101CE00000060BD5002044F8300F20216173A0734B
:101CF000216941F0200121612073E4E720684069F7
:101D0000C0430006DBD4002070BD000070B586B073
:101D1000002418480094019402940394816941F0CE
:101D200020018161816901F020010491816941F004
:101D300004018161816901F004010491816941F02C
:101D40000801816180690C4E00F008004FF4804565
:101D50000490002229463046FEF723FF012000951B
:101D6000CDE901040220039069463046FEF734FEB7
:101D700006B070BD00100240000C014010B586B0E6
:101D80000024174800940194029403940494134986
:101D9000059401600721C0E901144FF6FF71C0E905
:101DA00003148461FFF718FC08B172B6FEE74FF424
:101DB0008050009069460A48FFF778FC08B172B677
:101DC000FEE7049404A906480594FFF7D5FB002814
:101DD00001D072B6FEE706B010BD0000000800405A
:101DE000FC000020FEE7FEE710B54FF0E0200069A0
:101DF00001F07CFF012803D0BDE8104001F024BBB6
:101E000010BD10B590B028216846FEF737FB1421AD
:101E10000AA8FEF733FB0220009001200490102056
:101E20000024059007946846FFF714FA08B172B6CB
:101E3000FEE70F20CDE90A040C940D9400210AA8B6
:101E40000E94FFF70BF9002801D072B6FEE710B030
:101E500010BD70470148FFF798BC000098010020B2
:101E600070B502684FF08046144B154CB04203D059
:101E7000984201D0A04205D122F070054A682A4359
:101E8000B04203D0984201D0A04203D122F4407363
:101E9000CA681A434B6922F080021A4302608A68BA
:101EA000C26209688162012141610169C90703D0E9
:101EB000016921F00101016170BD000000040040D2
:101EC0000008004010B5846842EA032224F47F44ED
:101ED0000A432243826010BD826822F070020A43E6
:101EE00042F007018160704710B5036A046A24F06C
:101EF00001040462846924F0F00444EA021423F02B
:101F00000A020A438461026210BD10B5036A046AC2
:101F100024F010040462846923F0A00324F47044C4
:101F200044EA023243EA01118261016210BD016894
:101F30000C3151E8002F22F4907241E80023002B6D
:101F4000F5D10168143151E8002F22F0010241E877
:101F50000023002BF5D1016B012909D101680C3157
:101F600051E8002F22F0100241E80023002BF5D1A8
:101F7000202180F8421000210163704770B50446AB
:101F800000680169E26821F440511143016121694F
:101F9000A0680843616908432168CA6841F20C637C
:101FA0009A430243CA6020684169A26921F44071E2
:101FB000114341611E492068884202D1FFF714F99C
:101FC00001E0FFF701F900EBC00101EB00126068CE
:101FD00064218000B2FBF0F3B3FBF1F36FF018065D
:101FE0007343B2FBF0F5B2FBF0F605EB8305322349
:101FF00003EB0515B5FBF1F5B6FBF1F605F0F005C1
:1020000005EB0615B2FBF0F6B2FBF0F0B0FBF1F019
:102010006FF01802504306EB800003EB0010B0FB9A
:10202000F1F0216800F00F002844886070BD0000C6
:10203000003801402DE9F843984617460D460446FE
:10204000089E24E0701C22D0FEF7B0FDA0EB080033
:10205000B0421AD8CEB12068C168490717D5802D83
:1020600015D0402D13D00168C94309070FD401686A
:102070000025406800902046FFF759FF0820606463
:1020800084F840500120BDE8F8830320FBE7206876
:10209000006835EA000004D00020B842D2D0002009
:1020A000F1E70120F9E7FEE70907090E002804DB44
:1020B00000F1E02080F80014704700F00F0000F1FC
:1020C000E02080F8141D7047044900220B685A6212
:1020D00009684A6A8242FCD370470000FC00002075
:1020E0008CB01A4C4FF0FF354FF4FA762B46002295
:1020F0000AA9206900F0E6F820BB2946606900F0D3
:1021000073F9002211461248FEF741FB9DF8282082
:1021100010A16846FEF7A8F869460D48FEF75CFB7B
:10212000012200210A48FEF732FB9DF829200CA16C
:1021300005A8FEF799F805A90548FEF74DFB60696B
:1021400000F0AFF9304600F081F8CFE70000002042
:102150008C01002054656D703A20256420430000F6
:1021600048756D69643A20256425250008B5FEF799
:10217000B3FEFFF746FEFFF7C9FD2C482A490024AD
:1021800001602B49C0E901144FF48041C0E90341CB
:1021900044618461C4610462FEF70EFD08B172B649
:1021A000FEE7FFF7EBFD214822499C3001604FF428
:1021B000E131C0E901140C21C460C0E9044184612B
:1021C000C461FFF784FB08B172B6FEE7022017492D
:1021D000009010234E2201F1E400FEF787FA00F090
:1021E00043F800220221102000F09EF8124C2061DA
:1021F000002000F022F96061104A0021104800F030
:1022000071F90E4AA060243A00210E4800F06AF9E4
:102210000A4A6060243200210B4800F063F9E06054
:1022200000F034F8FEE7000000540040A800002051
:10223000A08601000044004000000020F440000897
:10224000352E0008E1200008652E000810B5EFF3D8
:10225000058111B16FF0050403E0002408B100F01E
:1022600071FF204610BD0000EFF3058010B16FF044
:10227000050070470448016811B14FF0FF30704706
:1022800001210160002070477800002010B5EFF3B5
:10229000058010B16FF0050010BD084801680129E4
:1022A00002D04FF0FF3010BD054A002182F8141D06
:1022B0000221016000F0F6FF002010BD7800002030
:1022C0000BE000E0F8B51D466FF003026FF0020668
:1022D0004FF00004EFF30583A3B1F0B1E9B1E5B924
:1022E000002200926A4601F03FFB012817D10098B6
:1022F000B0B10C494FF080500860BFF34F8FBFF36F
:102300006F8F0DE048B141B12A4601F091FA0128E2
:1023100006D025B16FF0010402E0144600E0344617
:102320002046F8BD04ED00E0F8B514464FF0000576
:10233000EFF3058212BB08B301B3A4B1D4E90232B2
:1023400063B1502A1AD32269C2B1676900FB01F652
:10235000B74213D3009501F0C6F807E072B92269BD
:1023600062B9626952B9002201F09CF8050005D0FB
:102370000CB1216800E0002100F0AEFE2846F8BD57
:10238000F8B51D466FF003026FF002064FF000042F
:10239000EFF30583ABB100B3F9B1F5B900221346F1
:1023A00000926A4601F0C6F9012818D10098B8B128
:1023B0000C494FF080500860BFF34F8FBFF36F8F11
:1023C0000EE050B149B100232A4601F003F901287B
:1023D00006D025B16FF0010402E0144600E0344657
:1023E0002046F8BD04ED00E02DE9F0410D46014620
:1023F00021F0010001F001014FF00004EFF305822C
:102400000AB1A41F16E048B100296FF001066FF071
:102410000207294608D001F0B1FB07E06FF0030482
:1024200008E035B1344605E001F0ECFA0128F8D1B6
:1024300000E03C462046BDE8F08170B505464FF00F
:102440000004EFF3058050BB0DB1686800E0002088
:10245000C10701D0012600E0002600071FD46DB19E
:10246000D5E9021021B1502819D31EB1042002E091
:1024700020B114E0012001F008F805E00EB10420BD
:1024800000E0012000F0F6FF040008D00DB129683B
:1024900000E0002100F020FE0EB144F001042046CF
:1024A00070BD70B5014621F0010001F001014FF04F
:1024B0000004EFF305820AB1A41F11E028B16FF008
:1024C000020529B101F095F907E06FF0030407E078
:1024D00000231A46194601F07DF8012800D02C4649
:1024E000204670BD2DE9FF414FEA01034FF0000582
:1024F000EFF30581039549BB40B3802718210024E1
:102500004AB3166806B1344696691EB13146761E46
:10251000382E02D21679F60703D0002004B0BDE8A9
:10252000F081566906B1B708D2F808C0BCF1000FB7
:102530000DD0D5685C2D18D312693AB136B18DE84B
:1025400006103A46214601F0A0FB03900DE0D66844
:102550005EB912694AB903AACDE90012BAB221469E
:1025600001F066FB012800D003950398D6E7000030
:102570002DE9F041134C0F460546E6682068001D22
:1025800000F0ACFC681C07D137B12168BDE8F04110
:102590000D48091D00F0F2BC20683544B542456085
:1025A000216805D2A06BBDE8F041091D00F0CEBC4A
:1025B000606B091D00F0CAFCA06A854200D2A562CA
:1025C000BDE8F08128000020D00600202DE9F04170
:1025D000054600F0DFFC2D4CA068401CA060206880
:1025E0002B4F10B1606930B32BE02560A068012843
:1025F00027D1002606EB860007EB800000F098FC50
:10260000761C382EF6D3234800F092FC2148143073
:1026100000F08EFC1F48283000F08AFC1D483C303A
:1026200000F086FC1B48503000F082FC19486063C3
:102630001430A06305E02068E96AC06A884200D8C7
:102640002560606A401C60626864E86A21698842AB
:1026500000D9206100EB800007EB8000291D00F00D
:102660008DFC00F0B7FC606900280CD02068E96A96
:10267000C06A884207D208494FF080500860BFF313
:102680004F8FBFF36F8FBDE8F0810000280000205E
:10269000200200208006002004ED00E038B500F0A4
:1026A00079FC104C2068C8B90F4800F041FC0E4876
:1026B000143000F03DFC0C48E060143020610A4BFF
:1026C0000020F03B009003F1500210210A2000F09E
:1026D0000AFF206010B105A100F0FEFCBDE8384003
:1026E00000F078BC64000020D4070020546D7251C3
:1026F0000000000030B4026C0B46002A0BD0C16809
:102700001144C1608468A14201D30168C16030BC3A
:102710001846FDF766BE30BC70472DE9F041856B69
:10272000174604460026026C82B1C7B1E068FDF787
:1027300058FEE168206C091AE1602268914202D2D9
:10274000A168081AE060022F16D017E02068A8B927
:10275000A06801F043FB06460020A0600EE0606820
:10276000FDF73FFE216C606808446060A168884204
:1027700004D32068606001E005B16D1E6D1CA56387
:102780003046BDE8F08110B5044690F8590058B1C4
:1027900001280CD002280FD0502080F31188BFF3FD
:1027A0004F8FBFF36F8FFEE7206B00F027FC2046B2
:1027B000BDE8104000F022BC10BD000010484FF4EE
:1027C0004061420706D0C01D0D4920F00700411AA4
:1027D000C1F540610B4A00230144C2E900030839F6
:1027E000183A21F0070111604B600B600B1AC0E929
:1027F000001393604FF00040536050617047000039
:10280000B40E002094000020144E154CA6F29C47F4
:102810004FF08058DFF84C9012E000BF00F0BAFB98
:10282000F068C568281D00F059FBA068401EA06034
:102830006068401E606000F0CDFB2846FFF7A3FFF4
:1028400060680028EAD138680128F9D9C9F8008001
:10285000BFF34F8FBFF36F8FF2E70000BC0600207D
:102860002800002004ED00E0002807D0002181604E
:1028700001600B460A46C16000F0ACBE7047000024
:1028800070B51D46049C51B1C4F80020C4E90F0185
:102890000121204600F05AFE84F84C5070BD24609F
:1028A000F4E700002DE9F05F8846DDE90B9415465A
:1028B000834691009A460A9EA522206BFDF7D6FD1D
:1028C0006FF00301206B01EB8501084420F007073E
:1028D000780707D0502080F31188BFF34F8FBFF3E4
:1028E0006F8FFEE70025B8F1000F0FD05FF00000FA
:1028F000221818F8001082F8341018F8001011B1DE
:10290000401C1028F4D384F8435001E084F834507C
:10291000382E00D33726E662C4E91365201D00F087
:1029200012FB04F1180000F00EFB2461C6F1380020
:102930006462A061656584F858505246594638462D
:1029400000F066FA2060B9F1000F01D0C9F800402C
:10295000BDE8F09F30B5114900E011460A68824297
:10296000FBD34B685C18844203D14068184448602C
:10297000084643681C18944209D1084C183C246846
:10298000A24209D052681A4442600A681268026082
:10299000814200D0086030BD0460F9E79400002057
:1029A00070B5002441600B4D0061914206D8D11AE8
:1029B0008269914206D2011D286907E09A4203D23A
:1029C000994201D3012403E0011DE86800F0BEFA3A
:1029D000204670BD6400002010B5044600F0DAFA0D
:1029E000A06B28B15FF0000400F0F4FA204610BD9F
:1029F0000124F9E730B589B03C4D6EE00498002819
:102A000006DADDE90601059A90470498002864DBA0
:102A1000069C606910B1201D00F060FA03A800F068
:102A2000D7F8024604980A2857D2DFE800F00505D7
:102A3000052D334A05052D3394F8280040F0010098
:102A400084F828000599A069059B01442046FFF7FA
:102A5000A7FF68B3216A2046884794F828004007FA
:102A60003BD5002000900598A16900234218194623
:102A7000204601F0F9FAD8B9502080F31188BFF34D
:102A80004F8FBFF36F8FFEE714F8280F20F001007F
:102A9000207022E094F8280040F0010084F828001B
:102AA0000598A06128B1811813462046FFF778FFEA
:102AB00013E0502080F31188BFF34F8FBFF36F8F67
:102AC000FEE794F82800810703D4204600F096FA28
:102AD00003E020F0010084F82800002204A92868FF
:102AE00000F0A6FE002889D109B030BD64000020A6
:102AF0002DE9FC410F46054600F018FC01A800F046
:102B000067F80446019818B101F01CFABDE8FC8191
:102B1000254EAFB130690068D0B30027291B3A4673
:102B2000306800F0EDFA01F00DFA0028EED11F49EF
:102B30004FF080500860BFF34F8FBFF36F8FE5E712
:102B4000A542EBD801F0FEF9F0682746C068C468DA
:102B5000201D00F0C3F994F82800410719D5A06999
:102B60002B4641193A462046FFF71AFFA8B100202C
:102B70000346014600902A46204601F075FA60B9E6
:102B8000502080F31188BFF34F8FBFF36F8FFEE7A4
:102B900007E020F0010084F82800216A20468847D9
:102BA000B4E70127BAE700006400002004ED00E06C
:102BB0000648416B096829B1416BC968C968496811
:102BC000816270474FF0FF31FAE7000028000020D3
:102BD00070B5054601F098F8064E0446B068844288
:102BE00003D200F009F8012000E000202860204610
:102BF000B46070BD64000020F8B5194D20E0C068D5
:102C0000C4680668201D00F069F9216A20468847DB
:102C100094F82800400713D5A0693044B04206D983
:102C200024616060211DE86800F090F908E0002050
:102C30000346014600903246204601F015FA38B1AD
:102C4000E86801680029DAD12969C5E90310F8BDEF
:102C5000502080F31188BFF34F8FBFF36F8FFEE7D3
:102C60006400002008484068401C4FF0500080F38A
:102C7000118804D0BFF34F8FBFF36F8FFEE7BFF310
:102C80004F8FBFF36F8FFEE79C000020074CE0687A
:102C9000016841B1C0680021D0F80000FFF728FFAB
:102CA000FFF7A8FEF3E701210020F7E7640000200A
:102CB0002DE9F041044600F06DF994F9455004F116
:102CC000240609E0606A48B1304601F003F908B112
:102CD00000F066FA6D1E6DB2002DF3DC4FF0FF368A
:102CE00084F8456000F076F900F054F994F9445006
:102CF00004F1100709E0206948B1384601F0EAF80C
:102D000008B100F04DFA6D1E6DB2002DF3DC84F8B1
:102D10004460BDE8F04100F05DB900002DE9F041EC
:102D20000546002700F002FB324E306808B9FFF775
:102D300045FD706905424ED1C5B3083568070ED010
:102D400005F00700C0F108000544680707D05020CF
:102D500080F31188BFF34F8FBFF36F8FFEE72DB362
:102D60007068854237D82348183001460C6801E066
:102D700020460C466168A94202D221680029F7D199
:102D800031688C4227D00768216801606068083785
:102D9000411B10290FD96019420708D0502080F339
:102DA0001188BFF34F8FBFF36F8FFEE713E04160D1
:102DB0006560FFF7CFFD61687068401A7060B268A7
:102DC000904200D2B060706901430020C4E9000164
:102DD000F068401CF06001F0B5F8780707D050208B
:102DE00080F31188BFF34F8FBFF36F8FFEE7384634
:102DF000BDE8F0817C0000200449086818B108682B
:102E0000026D521C0265086870470000280000200F
:102E100010B5031F4FF080741C601B1F21F00101CF
:102E20001960191F024B0B60143940380A6010BD3D
:102E3000652C000808B50A4C6F464FF0FF354FF47B
:102E4000FA666946781CFDF727FD2B460022694685
:102E50002069FFF795FA3046FFF7F8F9F1E700002F
:102E60000000002090B0154C4FF0FF354FF47A76FB
:102E70002B4600220EA92069FFF724FAC8B929467B
:102E80006069FFF7B1FA9DF8390000909DF838307D
:102E90000BA2322101A8FDF7FBF901A8FDF782FA88
:102EA00082B22B4601A90C48FEF77CFD6069FFF752
:102EB000F8FA3046FFF7CAF9DAE700000000002010
:102EC00054656D703A20256420432C2048756D3A76
:102ED00020256425250D0A0044010020D0E9013297
:102EE00001699A60D0E901235A604A68824201D19F
:102EF00082684A60002202610868401E0860086813
:102F000070470000034B036003F15C000860802001
:102F100010607047FC070020044B036003F15C0065
:102F200008604FF48070106070470000580A00205D
:102F300000F108014FF0FF32C0E90112C1600161E8
:102F400000210160704700210161704730B50B68B6
:102F50005A1C02D000F1080202E0026904E0224695
:102F6000546825689D42FAD953684B6099608A601D
:102F7000516008610168491C016030BD42684A60C7
:102F800093688B6093685960916008610168491C7F
:102F900001607047502080F31188BFF34F8FBFF35B
:102FA0006F8F0A494868401C486001280CD10848C6
:102FB000006810F0FF0F07D0502080F31188BFF396
:102FC0004F8FBFF36F8FFEE7704700009C0000201B
:102FD00004ED00E00849486828B1401E486001D16E
:102FE00080F311887047502080F31188BFF34F8F12
:102FF000BFF36F8FFEE700009C00002070B5002833
:103000002AD0164DA0F1080460686969084207D10A
:10301000502080F31188BFF34F8FBFF36F8FFEE70F
:1030200022683AB1502080F31188BFF34F8FBFF36D
:103030006F8FFEE78843606000F078F96068696828
:10304000084468602046FFF785FC2869401C286119
:10305000BDE8704000F076BF70BD00007C0000202D
:103060004FF0E02000210161816105494FF47A723F
:103070000968B1FBF2F1491E416107210161704706
:103080002400002010B5FDF7CBF8114910280ED30D
:1030900000F1E02090F8F0030A78904207D2502027
:1030A00080F31188BFF34F8FBFF36F8FFEE709489E
:1030B0000068896800F4E060884207D9502080F3F6
:1030C0001188BFF34F8FBFF36F8FFEE710BD000075
:1030D0009C0000200CED00E010B5084B002200BF62
:1030E00053F832401CB1521C082AF9D310BD43F8E2
:1030F000321003EBC201486010BD0000E001002067
:1031000070B515460E460446FFF744FF94F9441087
:103110000020491C01D184F8440094F94510491C51
:1031200001D184F84500FFF755FFA06B28B92A4666
:10313000314604F1240000F051F82046BDE870400B
:10314000FFF7B6BD10B5020014D00F48006B38B1C0
:10315000502080F31188BFF34F8FBFF36F8FFEE7CE
:1031600000F0E4F800211046FFF702FA00F0EAFE52
:10317000002807D105494FF080500860BFF34F8FFA
:10318000BFF36F8F10BD00002800002004ED00E0A9
:1031900002490A6A0260C96841607047280000203D
:1031A00001490120C86170472800002010B50C4675
:1031B00050B1094909681831FFF7C8FE2046BDE83B
:1031C00010400121FFF7D4B9502080F31188BFF3DC
:1031D0004F8FBFF36F8FFEE72800002070B51446B5
:1031E0000D4668B10A4909681831FFF7C7FE0CB1EE
:1031F0004FF0FF3521462846BDE87040FFF7B8B9CB
:10320000502080F31188BFF34F8FBFF36F8FFEE71D
:103210002800002070B504003ED0226DA2B1E06C01
:10322000884200D30146E06A884235D0012A33D172
:103230001A4D2A6894420FD1502080F31188BFF3B1
:103240004F8FBFF36F8FFEE7502080F31188BFF3DD
:103250004F8FBFF36F8FFEE7E162A269002A02DBA6
:10326000C1F13801A1610E4E00EB8000616906EBEF
:103270008000814210D1201DFFF730FEE06A2969ED
:10328000884200D9286100EB800006EB8000211DF8
:10329000BDE87040FFF772BE70BD0000280000203E
:1032A0002002002030B587B00024039405AA04A9A9
:1032B00003A80494FFF726FEDDE903010094CDE99D
:1032C0000110002315A11748059A00F0DEFC164DE9
:1032D0000028E8621FD000F097FE012809D0401CAA
:1032E00019D1502080F31188BFF34F8FBFF36F8F38
:1032F000FEE7502080F31188BFF34F8FBFF36F8F2D
:103300004FF0FF30A86201206861EC6007B0BDE8B3
:10331000304000F045B807B030BD000049444C458E
:103320000000000009280008280000200248016B66
:10333000491C01637047000028000020164810B5A2
:10334000016B11B10121C16110BD0021C161016991
:10335000124A01E0B9B1491E01EB810352F8233052
:10336000002BF7D001EB810302EB830202F108048A
:1033700053685B685360A34201D15B685360DA68AD
:103380000260016110BD502080F31188BFF34F8FA0
:10339000BFF36F8FFEE7000028000020200200200E
:1033A0001CB5264908780190FF20087008788DF830
:1033B00000009DF800009DF8002000F0F000904211
:1033C00007D0502080F31188BFF34F8FBFF36F8F6A
:1033D000FEE79DF800001A4C00F050002070072016
:1033E000A06005E09DF8002052008DF80020401EEE
:1033F0009DF800201206F5D4A060032807D05020C5
:1034000080F31188BFF34F8FBFF36F8FFEE74FF448
:103410004070A060019808700A48016841F470018A
:103420000160016841F070410160FFF719FE002062
:103430006060FCF7BFFE00201CBD000000E400E05F
:103440009C00002020ED00E010B5502080F3118892
:10345000BFF34F8FBFF36F8F00F05CFC18B10449CE
:103460004FF080500860002080F3118810BD0000EC
:1034700004ED00E010B502460021012000F012F832
:103480000446FFF7F1F9204610BD38B50B4600227F
:1034900000901146012000F026F80446FFF7E4F9F9
:1034A000204638BDF8B517460E46050013D005FB7B
:1034B00006F05030FFF732FC04000AD0002084F8F8
:1034C000460004F150023B46314628460094FFF77F
:1034D000D7F92046F8BD502080F31188BFF34F8FF5
:1034E000BFF36F8FFEE738B5049D18B153B1CAB171
:1034F00081B120E0502080F31188BFF34F8FBFF3DC
:103500006F8FFEE7502080F31188BFF34F8FBFF31A
:103510006F8FFEE7502080F31188BFF34F8FBFF30A
:103520006F8FFEE739B1502080F31188BFF34F8FC2
:10353000BFF36F8FFEE750241C46012384F846300A
:103540002B460094FFF79CF9204638BD70B50D4618
:10355000040025D0FFF71EFDD4E90F20216802FBEF
:103560000011A1600021A163216861600A46D4E9CD
:103570000F01401E00FB0121E16021464FF0FF30AA
:1035800001F8440F487004F110008DB1FFF7D0FC32
:1035900004F12400FFF7CCFCFFF71CFD012070BDF7
:1035A000502080F31188BFF34F8FBFF36F8FFEE77A
:1035B00021690029F0D000F08DFC0028ECD00449EE
:1035C0004FF080500860BFF34F8FBFF36F8FE3E77A
:1035D00004ED00E02DE9FF4782B01D468A464FF01A
:1035E0000008040003D0BAF1000F08D011E0502009
:1035F00080F31188BFF34F8FBFF36F8FFEE7206C0E
:1036000038B1502080F31188BFF34F8FBFF36F8F15
:10361000FEE7022D0AD1E06B012807D0502080F38D
:103620001188BFF34F8FBFF36F8FFEE700F05EFB93
:103630003F4F4FF000094FF0805648B9049838B119
:10364000502080F31188BFF34F8FBFF36F8FFEE7D9
:10365000FFF7A0FCA06BE16B884207D3022D05D0D9
:103660000498D0B1B8F1000F1AD01EE02A46514696
:103670002046FFF752F8616A19B104F1240000F006
:1036800029FC20B13E60BFF34F8FBFF36F8FFFF770
:10369000A1FC012006B0BDE8F087FFF79BFC22E00B
:1036A0006846FFF775FD4FF00108FFF793FCFFF741
:1036B0003DFEFFF76FFC94F94400401C01D184F8F3
:1036C000449094F94500401C01D184F84590FFF7DF
:1036D00081FC04A9684600F071FA30B12046FFF77A
:1036E000E7FA00F02FFC0020D4E7FFF753FCA06BB3
:1036F000E16B884213D1FFF76DFC04F110000499CF
:10370000FFF754FD2046FFF7D3FA00F01BFC00281A
:103710009ED13E60BFF34F8FBFF36F8F98E7FFF7E7
:1037200059FC2046FFF7C4FA00F00CFC90E70000BB
:1037300004ED00E02DE9F0471F469046894604005D
:1037400003D0B9F1000F08D011E0502080F31188A8
:10375000BFF34F8FBFF36F8FFEE7206C38B150205F
:1037600080F31188BFF34F8FBFF36F8FFEE7022FF7
:103770000AD1E06B012807D0502080F31188BFF3F5
:103780004F8FBFF36F8FFEE7FFF77CFC5020EFF306
:10379000118680F31188BFF34F8FBFF36F8FA06B3B
:1037A000E16B884206D3022F04D0002086F31188F3
:1037B000BDE8F08794F94550A06B3A46494620464B
:1037C000FEF7ABFF681C04D06D1C84F84550012047
:1037D000ECE7606A0028FAD004F1240000F07AFBDC
:1037E0000028F4D0B8F1000FF1D00121C8F8001082
:1037F000EDE710B5040009D000F072FAA168884224
:1038000014D1E068401EE06008D00DE0502080F345
:103810001188BFF34F8FBFF36F8FFEE700231A4667
:1038200019462046FFF7D6FE012010BD002010BD2E
:103830002DE9F747002683B08A46040003D0BAF189
:10384000000F08D011E0502080F31188BFF34F8F94
:10385000BFF36F8FFEE7206C38B1502080F31188E2
:10386000BFF34F8FBFF36F8FFEE700F03FFADFF833
:10387000F4804FF000094FF0805748B9059838B1EF
:10388000502080F31188BFF34F8FBFF36F8FFEE797
:10389000FFF780FBA56BC5B151462046FEF72AFF16
:1038A0006D1EA563206950B104F1100000F012FBF9
:1038B00028B1C8F80070BFF34F8FBFF36F8FFFF7C9
:1038C00089FB012006B0BDE8F087059808B11EB15C
:1038D00006E0FFF77FFB27E06846FFF759FC01266B
:1038E000FFF778FBFFF722FDFFF754FB94F9440044
:1038F000401C01D184F8449094F94500401C01D14A
:1039000084F84590FFF766FB05A9684600F056F974
:10391000002820460AD0FFF7CBF900F013FB204621
:10392000FFF75AF80028B3D00020CBE7FFF754F890
:1039300090B104F124000599FFF738FC2046FFF709
:10394000B7F900F0FFFA0028A2D1C8F80070BFF361
:103950004F8FBFF36F8F9BE72046FFF7A9F900F069
:10396000F1FA95E704ED00E02DE9F047904689462D
:10397000040003D0B9F1000F08D011E0502080F30B
:103980001188BFF34F8FBFF36F8FFEE7206C38B104
:10399000502080F31188BFF34F8FBFF36F8FFEE786
:1039A000FFF770FB5020EFF3118680F31188BFF30F
:1039B0004F8FBFF36F8FA76BF7B194F9445049460F
:1039C0002046FEF797FE7F1EA763681C04D06D1C7F
:1039D00084F84450012010E020690028FAD004F156
:1039E000100000F077FA0028F4D0B8F1000FF1D001
:1039F0000121C8F80010EDE7002086F31188BDE82A
:103A0000F08700002DE9F343002683B0040035461B
:103A100009D0206C78B1502080F31188BFF34F8F0C
:103A2000BFF36F8FFEE7502080F31188BFF34F8FF5
:103A3000BFF36F8FFEE700F059F9DFF83C814FF0DC
:103A400000094FF0805748B9049838B1502080F3EE
:103A50001188BFF34F8FBFF36F8FFEE7FFF79AFA1E
:103A6000A06BC8B1401EA063206810B9FFF7C4F96D
:103A7000A060206950B104F1100000F02BFA28B1C9
:103A8000C8F80070BFF34F8FBFF36F8FFFF7A2FA34
:103A9000012005B0BDE8F083049808B166B10FE0DD
:103AA0003DB1502080F31188BFF34F8FBFF36F8F6C
:103AB000FEE7FFF78FFA5DE06846FFF769FB012636
:103AC000FFF788FAFFF732FCFFF764FA94F9440035
:103AD000401C01D184F8449094F94500401C01D168
:103AE00084F84590FFF776FA04A9684600F066F876
:103AF0000028204612D0FFF7DBF800F023FA20461A
:103B0000FEF76AFF0028A9D09DB3FFF743FA606A69
:103B100050B3206B0068C0F1380126E0FEF75CFF6F
:103B2000E0B1206838B9FFF735FAA06800F096F9DF
:103B30000546FFF74FFA04F124000499FFF736FB1E
:103B40002046FFF7B5F800F0FDF9002886D1C8F847
:103B50000070BFF34F8FBFF36F8F7FE72046FFF7F3
:103B6000A7F800F0EFF979E70021A068FFF752FB12
:103B70009FE7FFE700208CE704ED00E070B50D46FD
:103B8000040009D000F0ACF8A16888420CD1E068CC
:103B9000401CE060012070BD502080F31188BFF30D
:103BA0004F8FBFF36F8FFEE729462046FFF72AFFAE
:103BB0000028F0D0E168491CE16070BD2DE9F041BA
:103BC0000C46050011D0C4B1FFF7E4F9174BDA68D1
:103BD0006E682068911B471C17D02F681B6A9F4294
:103BE00019D0964217D8012410E0502080F3118894
:103BF000BFF34F8FBFF36F8FFEE7502080F3118824
:103C0000BFF34F8FBFF36F8FFEE70024FFF7E2F99A
:103C10002046BDE8F081884205D9401A2060284638
:103C2000FFF7B6FAF1E700202060DCE7280000206B
:103C30002DE9FF5F8346DDE90E87994616468A46E1
:103C40009000FFF76BF805001CD05C20FFF766F8CA
:103C5000040014D00020256384F85900CDE9024007
:103C6000CDE900874B46324651465846FEF71AFECC
:103C70002046FEF7ABFC012004B0BDE8F09F2846CB
:103C8000FFF7BCF94FF0FF30F6E7F0B585B0DDE99E
:103C90000B640A9DA6B1DCB15C270097266302265F
:103CA00084F85960002604AFCDE90246CDE90057FB
:103CB000FEF7F8FD2046FEF789FC049805B0F0BD3C
:103CC000502080F31188BFF34F8FBFF36F8FFEE753
:103CD000502080F31188BFF34F8FBFF36F8FFEE743
:103CE000014800687047000028000020054841692D
:103CF00019B1006B18B100207047012070470220F5
:103D000070470000280000200148C068704700008C
:103D1000280000202DE9F0412E4C0027206B28B10F
:103D2000A069401CA0613846BDE8F081E668761CB9
:103D3000E66013D1606B006838B1502080F31188C1
:103D4000BFF34F8FBFF36F8FFEE7606BA16B6163B3
:103D5000A063206A401C2062FEF72AFFA06ADFF8F9
:103D60007880864209D3606B0068A0B1606BC06840
:103D7000C5686868864211D2A0622068C06A00EBFC
:103D8000800158F82100012800D90127E0690028A6
:103D9000C9D00127C7E74FF0FF30EDE7281DFFF737
:103DA0009DF8A86A18B105F11800FFF797F8E86ABE
:103DB0002169884200D9206100EB800108EB810075
:103DC000291DFFF7DBF8E86A2168C96A8842CAD36F
:103DD0000127C8E7280000202002002070B5040059
:103DE0004FF0000133D01B4D2868844207D050208B
:103DF00080F31188BFF34F8FBFF36F8FFEE7206D05
:103E000038B1401E2065E36CE26A9A421FD040B18F
:103E10001DE0502080F31188BFF34F8FBFF36F8FE9
:103E2000FEE7201DFFF75AF8E06CE062C0F13800B1
:103E3000A061E06A2969884200D92861064900EB3F
:103E4000800001EB8000211DFFF798F80121084652
:103E500070BD0000280000202002002070B5040082
:103E60004FF000002BD0194DE16A2A68D26A9142C6
:103E700026D2A069002804DB2868C06AC0F1380097
:103E8000A061134E01EB8101606906EB810188425C
:103E900011D1201DFFF722F82868C06AE062296965
:103EA000884200D9286100EB800006EB8000211DCC
:103EB000FFF764F802E02868C06AE062012070BD84
:103EC000E16C2A68D26A9142F8D370BD28000020C4
:103ED0002002002070B5C068C46854B104F1180015
:103EE0000646FEF7FBFF144D286B50B131461348D0
:103EF00015E0502080F31188BFF34F8FBFF36F8F11
:103F0000FEE7201DFEF7EAFFE06A2969884200D932
:103F100028610B4900EB800001EB8000211DFFF7B9
:103F20002DF8E06A2968C96A884202D90120E8614F
:103F300070BD002070BD000028000020A8060020F1
:103F4000200200202DE9F0472C4D00242746286B45
:103F500038B1FFF71FF8286B401E2863286B40B16B
:103F600046E0502080F31188BFF34F8FBFF36F8F6F
:103F7000FEE7A968224E0120D1B3A6F591698046DB
:103F80003068E0B1F068C46804F11800FEF7A6FFDD
:103F9000201DFEF7A3FFE06A2969884200D9286145
:103FA00000EB800109EB8100211DFEF7E7FFE06ACD
:103FB0002968C96A8842E3D3C5F81C80E0E70CB1E0
:103FC000FEF7F6FDAC694CB14FEA0806FFF7A2FE1A
:103FD00000B1EE61641EF9D10020A861E86938B132
:103FE0000849012738070860BFF34F8FBFF36F8F71
:103FF000FEF7F0FF3846BDE8F087000028000020FB
:10400000A806002004ED00E010B586B0FEF746FBE0
:10401000114C2068B8B100200390049005AA04A9AF
:1040200003A8FEF779FFDDE9032102208DE80700F0
:1040300000230AA10B48059AFFF727FE606010B124
:1040400006B0012010BD502080F31188BFF34F8FC0
:10405000BFF36F8FFEE7000064000020546D7220F4
:10406000537663008D2C00082DE9FF411E46134650
:1040700002000A9D4FF0000016D0144C2768002F54
:104080000FD0CDE900130292062917DAFFF72EFEB2
:1040900002284FF000030FD0002269462068FFF786
:1040A00099FA04B0BDE8F081502080F31188BFF385
:1040B0004F8FBFF36F8FFEE72A46EEE700233246AD
:1040C00069463846FFF736FBEBE700006400002046
:1040D0008041000800000000000000000000000017
:1040E00000000000000200001000000000000000BE
:1040F000000000006841000800000000000000000F
:10410000000000000000000000020000200000008D
:1041100000000000000000007441000800000000E2
:10412000000000000000000000000000000200008D
:10413000180000000000000000000000010202035F
:104140000405060708090A0B0C0D0E0F10100000DD
:104150000000000000000102030406070809000037
:104160000000010203040000726561645461736B16
:104170000000000073656E645461736B0000000002
:10418000646973706C61795461736B00AC410008B1
:1041900000000020A8000000280100085442000888
:1041A000A80000207020000044010008000000006A
:1041B00000000000000000000000000000000000FF
:1041C00000000000010000001000000000000000DE
:1041D00000127A0000000000000000000000000053
:1041E00000000000000000000000000000000000CF
:1041F00000000000000000000000000000000000BF
:1042000000000000000000000000000000000000AE
:10421000000000000000000000000000000000009E
:10422000000000000000000000000000000000008E
:10423000000000000000000000000000000000007E
:10424000000000000000000000000000AAAAAAAAC6
:04425000000000006A
:04000005080000ED02
:00000001FF
