:020000040800F2
:1000000078070020A501000871200008A71D00083E
:100010006F20000807080008E12300080000000026
:100020000000000000000000000000007520000833
:10003000E10A000800000000732000087720000893
:10004000BF010008BF010008BF010008BF01000890
:10005000BF010008BF010008BF010008BF01000880
:10006000BF010008BF010008BF010008BF01000870
:10007000BF010008BF010008BF010008BF01000860
:10008000BF010008BF010008BF010008BF01000850
:10009000BF010008BF010008BF010008BF01000840
:1000A000BF010008BF010008BF010008BF01000830
:1000B000BF010008BF010008BF010008BF01000820
:1000C000BF010008BF010008BF010008BF01000810
:1000D000BF010008BF010008D5230008BF010008C8
:1000E000BF010008BF010008BF01000800F002F8CE
:1000F00000F048F80AA090E8000C82448344AAF17A
:100100000107DA4501D100F03DF8AFF2090EBAE877
:100110000F0013F0010F18BFFB1A43F0010318473B
:100120004025000060250000103A24BF78C878C13F
:10013000FAD8520724BF30C830C144BF04680C60ED
:10014000704700000023002400250026103A28BF35
:1001500078C1FBD8520728BF30C148BF0B60704739
:10016000642900F0A180002070471FB500F028FB33
:1001700004000020002102F047FA401C60601FBD0F
:1001800010B510BD00F0F7FA1146FFF7EEFF02F0D0
:1001900045F900F027FB03B4FFF7F2FF03BC00F0C2
:1001A0002BFB00000948804709480047FEE7FEE7AF
:1001B000FEE7FEE7FEE7FEE7FEE7FEE7FEE7FEE717
:1001C00004480549054A064B70470000D92000083D
:1001D000ED00000878010020780700207803002057
:1001E000780300200FB41CB5074B06AA7B44694670
:1001F0000090059800F00BFA0020694600F01AFA0A
:100200001CBC5DF814FB0000450400000FB41CB5D5
:100210000C0007AA009001D02044401E074B7B44ED
:1002200069460190069800F0F2F9002C03D0694667
:10023000002000F0FFF91CBC5DF814FB1D04000059
:100240002DE9F0410E460446002020622046E16878
:10025000884730B3252805D0D4E901219047206A8A
:10026000401CF2E7E168204600278847050018D0C7
:10027000A5F14100192802D820354FF40067324615
:10028000294620462760FFF76BFF40B1012804D0C4
:10029000F61D26F007060836D8E7361DD6E72846AD
:1002A000DAE7206ABDE8F0812DE9F0410646002436
:1002B00010687529314616A510D0AFF300800028CC
:1002C00002DA404213A507E031688A0701D512A57A
:1002D00002E0490704D511A5012401E0AFF3008035
:1002E00000210A2206F1240709E0B0FBF2FCB0FB72
:1002F000F2F302FB1C00303078541846491C0028E9
:10030000F3D123462A463046BDE8F04100F020B93B
:10031000000000002D0000002B0000002000000065
:1003200070B5064600F010F90468054630460A220A
:10033000002100F08CF92C6070BD10B5431C02E068
:1003400010F8011B71B18107FAD14FF0013202C8D8
:100350008C1A8C4314EAC211F9D0C01A0A0603D0D1
:10036000C01E10BDC01A10BD0A0401D0801E10BDF1
:100370000902FCD0401E10BD40EA010370B59B0786
:100380002ED14FF00136042A2AD308C810C99D1B6C
:100390009D43121F15EAC61517D0D8B2E1B2401A14
:1003A00050EA056110D198B2A1B2401A50EA054155
:1003B0000AD123F07F4024F07F41401A50EA052102
:1003C00002D1180EA0EB146070BDA342DBD018BAA6
:1003D00021BA884201D9012070BD4FF0FF3070BDB5
:1003E0000AB9002070BD10F8013B11F8014B63B150
:1003F000A3420AD1521E08D010F8013B11F8014B5C
:100400001BB1A34201D1521EEDD1181B70BD10B516
:10041000203AC0F00B80B1E81850203AA0E81850FC
:10042000B1E81850A0E81850BFF4F5AF5FEA027CBD
:1004300024BFB1E81850A0E8185044BF18C918C02C
:10044000BDE810405FEA827C24BF51F8043B40F8CD
:10045000043B08BF7047D20728BF31F8023B48BFB2
:1004600011F8012B28BF20F8023B48BF00F8012BF0
:1004700070474FF0000200B5134694469646203967
:1004800022BFA0E80C50A0E80C50B1F12001BFF44D
:10049000F7AF090728BFA0E80C5048BF0CC05DF8B3
:1004A00004EB890028BF40F8042B08BF704748BF01
:1004B00020F8022B11F0804F18BF00F8012B704775
:1004C0004FF0013C50F8042B51F8043B9A4221D1E3
:1004D000A2EB0C03934313EACC1317D150F8042B6F
:1004E00051F8043B9A4215D1A2EB0C03934313EA53
:1004F000CC130BD150F8042B51F8043B9A4209D18C
:10050000A2EB0C03934313EACC13DBD04FF00000B3
:10051000704700BFD01A01BAB1FA81F101F0180199
:1005200022FA01F0CB40C1F12001DBB2C0B2C01A07
:100530002CFA01F3D11A914311EAC311E6D17047A5
:100540007047704770470000004870471401002052
:100550002DE9F0470D4699469246044600F12408DD
:100560000168880604D5E06921F01001216000E0EF
:100570000120A84201DD471B00E00027A1697A198C
:1005800002EB0900081AA0612078C00602D42046B8
:10059000AFF30080002608E0D4E901211AF8060034
:1005A0009047206A401C761C20624E45F4DB207880
:1005B000C0060AD52046AFF3008006E0D4E9012149
:1005C00030209047206A401C2062381EA7F10107A6
:1005D000F4DC07E0D4E9012118F805009047206A0F
:1005E000401C2062281EA5F10105F3DC2046AFF374
:1005F00000802078000602D50220BDE8F0870120A7
:10060000FBE7000001694A1C02610878704700B5E9
:100610008FB0CDE901310021059105497944CDE93B
:10062000031011466846FFF70BFE0FB000BD000037
:10063000E5FFFFFF0A6802F8010B0A607047D1E985
:1006400000239A4202D2531C0B60107070472DE9B0
:10065000F04791460F4680460446002614F8015B99
:100660002DB100F031F80068405DC007F6D12B2DA8
:1006700002D02D2D18D0641E4A463946204600F07F
:100680002BF827B13968A14201D1C7F800804FF09B
:10069000020471050BD54042002803DDFFF754FF2B
:1006A0000460A007BDE8F08746F48066E4E7002810
:1006B000F8DAFFF749FF04606FF00040F2E700004E
:1006C000004870471401002010B500F079F8001DB3
:1006D00010BD00BF351F00002DE9F05F82461546B2
:1006E0008B4600270AF10104B9460078302801D072
:1006F0009DB113E014F8010B0127782803D0582886
:1007000001D045B10AE00DB1102D07D1002714F832
:10071000010B102502E0082500E00A250026B0465E
:100720000EE005FB080005FB06F101271FFA80F823
:1007300001EB1046B6F5803F00D3B94614F8010B23
:10074000294600F041F80028EBDABBF1000F05D094
:100750000FB1641E00E05446CBF80040B9F1000F21
:1007600006D0FFF7F1FE02210160C81EBDE8F09F30
:1007700048EA0640FAE77546FFF7A2FFAE460500D5
:100780006946534620F00700854618B020B5FFF7AC
:1007900017FDBDE820404FF000064FF000074FF076
:1007A00000084FF0000B21F00701AC46ACE8C0098F
:1007B000ACE8C009ACE8C009ACE8C0098D46704798
:1007C00000487047340100203A2800D2303820F029
:1007D0002002412A01D3A2F13700884201D34FF011
:1007E000FF30704710B50446AFF300802046BDE8E7
:1007F0001040FFF7D0BC000001491820ABBEFEE757
:10080000260002007047FEE710B50022012100F02B
:1008100087F8BDE81040052000F0D2B910B50446B5
:100820000298216022716371A0712820A0720620B5
:10083000E0710C202072142060720820E0723220D7
:1008400000F0BEF900223321204600F069F80022B2
:100850003321204600F064F8052000F0B1F90022B1
:100860003221204600F05CF8052000F0A9F90022B2
:100870002021204600F054F8052000F0A1F9E1798C
:100880000022204600F04CF8217A0022204600F099
:1008900047F8617A0022204600F042F8A17A00224F
:1008A000204600F03DF800220121204600F038F8F3
:1008B00020460022BDE81040022100F031B830B4DB
:1008C000447900238C4201D8641EE1B284799442B9
:1008D00001D8641EE2B232B1012A06D0022A06D043
:1008E000032A06D007E00B4605E0403102E0143150
:1008F00000E05431CBB230BC43F08001002200F064
:100900000FB8012200F00CB870B50C46054603E0A4
:100910002846641CFFF7F5FF21780029F8D170BD47
:100920007CB506460807040EF07A01F0F00518B110
:1009300045F0080544F00804012A01D02AB108E076
:1009400045F0010544F0010403E025F0010524F021
:10095000010445F004008DF80400012000F030F996
:100960008DF8055044F004008DF80600012000F0D9
:1009700027F94FF47A708DF80740009031790423FD
:1009800001AA306800F0F2FA7CBD000070B50024C6
:10099000282001F037FD0B4E4FF4804529463046A4
:1009A00000F010FA40B9502001F02CFD29463046E5
:1009B00000F008FA00B10124282001F023FD2046B0
:1009C00070BD0000000C01402DE9FF4789468046BC
:1009D00000F05CF8FFF7DAFFB0B100F027F8054649
:1009E00000F024F8074600F021F8044600F01EF855
:1009F000064600F01BF8E91921443144814203D135
:100A000088F8005089F800404FF480400090112091
:100A1000019001200290022003906946024800F0F4
:100A2000E1F8BDE8FF870000000C01402DE9F0412E
:100A30000025154E2C464FF001084FF480473946EB
:100A4000304600F0BFF90028F9D0282001F0DAFC88
:100A50003946304600F0B6F90028C4F1070108FA1B
:100A600001F00ED02843C5B23946304600F0AAF94D
:100A70000028F9D1641CE4B2082CE0D32846BDE874
:100A8000F0818543F0E70000000C01407FB54FF492
:100A900080451120CDE900500120029002200F4E28
:100AA000039000246946304600F09CF80022294655
:100AB000304600F08CF9122000F082F8012229461D
:100AC000304600F084F91E2001F09CFC0194694638
:100AD0003046029400F086F87FBD0000000C014013
:100AE000704710B590F821100022022905D004218A
:100AF000816380F82020012010BD01680B6823F07D
:100B00000E030B6001680B6823F001030B6090F883
:100B10004030C46B012101FA03F3636080F82110B7
:100B200080F82020104610BD10B590F82110002448
:100B3000022903D00421816301243DE001680A6891
:100B400022F00E020A6001680A6822F001020A60BF
:100B50001A4A0168914201D1012121E0174A143259
:100B6000914201D110211BE0144A2832914201D157
:100B7000891515E0114A3C32914201D189140FE0E8
:100B80000E4A5032914202D14FF4803108E00B4AB4
:100B90006432914202D14FF4801101E04FF0807134
:100BA000064A083A5160012180F82110002180F89E
:100BB0002010416B01B18847204610BD080002405B
:100BC00070B5044600F008F90546601C02D00448E0
:100BD0000078044400F000F9401BA042FAD370BD35
:100BE000080000202DE9F84FDFF8B8910024A9F1A2
:100BF000040B23460F2709F1040AABF1040EC9E0E8
:100C00000125A5402A40AA427DD1674ED1F804C0F3
:100C1000ACEB0608B44532D014DCBCF1030F3AD07B
:100C200009DCBCF1000F2AD0BCF1010F1CD0BCF1D3
:100C3000020F31D11DE0BCF1110F17D0BCF1120F22
:100C40002AD119E0B8F5881F19D006DCB8F5803F25
:100C500015D0B8F5801F1FD111E0B8F5001F0ED0D8
:100C6000B8F5041F18D10AE0CB6815E0CB681B1D4E
:100C700012E0CB6808330FE0CB680C330CE08B68D4
:100C80002BB1012B4FF0080303D0456104E004238E
:100C900002E0056100E00023FF2A01D8064601E0DA
:100CA00000F104064FEA840501D9A5F12005D6F824
:100CB000008007FA05FC28EA0C0803FA05F548EA63
:100CC0000508C6F800804D68ED0062D5374DAE6965
:100CD00046F00106AE61AD6924F0030605F001059A
:100CE0000095334D06EB050CDCF80850A607360FCF
:100CF00007FA06F825EA0805DFF8B880404503D171
:100D00004FF0000817E044E0DFF8AC80404502D126
:100D10004FF001080FE0DFF8A480404502D14FF00A
:100D2000020808E0DFF89880404502D14FF0030840
:100D300001E04FF0040808FA06F848EA0508CCF884
:100D400008804D68D9F80060ED024D4601D5164384
:100D500000E096432E604D68DAF80060AD0255461B
:100D600001D5164300E096432E604D68DBF8006025
:100D7000AD035D4601D5164300E096432E604D68F5
:100D8000DEF80060ED03754601D5164300E096439A
:100D90002E60641C0D682A46E5407FF431AFBDE843
:100DA000F88F0000080401400000111000100240FC
:100DB0000000014000080140000C0140001001400B
:100DC000001401408068084000D0012070470AB13B
:100DD000016170470904FBE7014880687047000023
:100DE0000800002070B5040025D094F83D000025CF
:100DF00020B984F83C50204600F04EF9242084F8B5
:100E00003D002068016821F001010160206801684F
:100E100041F4004101602068016821F40041016053
:100E200000F096FA4D4A6168914201D84C4900E0C1
:100E30004C49884201D2012070BD4B492368B0FB68
:100E4000F1F15E6826F03F060E435E6063689342F0
:100E500006D94FF4967359434FF47A73B1FBF3F10B
:100E60002368491C1E6A26F03F06314319626168F7
:100E7000914210D84900401EB0FBF1F2521CC2F35F
:100E80000B02042A01D2042022E0B0FBF1F0401C46
:100E9000C0F30B001CE0A268F2B301EBC10303EB4B
:100EA0000116431EB3FBF6F35B1C43F480431B05A2
:100EB00049D092B301EBC10202EB0111401EB0FB1D
:100EC000F1F0401CC0F30B0040F4804040F40040BF
:100ED0002168CA694CF6FF739A431043C861D4E98C
:100EE000071001432068026822F0C002114301602C
:100EF000D4E9030101432068826848F2FF339A4332
:100F000011438160D4E9050108432168CA6822F0D1
:100F1000FF021043C86001E00EE016E0206801689F
:100F200041F0010101602564202084F83D00256323
:100F300084F83E50002070BD01EB4106431EB3FB18
:100F4000F6F35B1CB3E70120C2E701EB4101401E51
:100F5000B0FBF1F0401CC0F30B00B7E7A086010026
:100F600080841E0000093D0040420F002DE9F84F2B
:100F70001F4690468A460446DDF82890FFF72CFF6E
:100F8000054694F83D0020287FD1192301224049CD
:100F90002046009500F09AFF002876D194F83C0096
:100FA000012872D0012084F83C0020680168C9073C
:100FB00003D1016841F0010101602068016821F45A
:100FC00000610160212084F83D00102084F83E007B
:100FD00000262664C4F824806785608D20852D480E
:100FE000E0622B464A465146204600F0F5FE90B995
:100FF000206841698069009036E02A4649462046CB
:1010000001F00AF850B1206C042804D1206801686E
:1010100041F4007101600120BDE8F88F606A216829
:1010200000780861606A401C6062618D491E6185BC
:10103000218D491E89B2218522685369DB435B07F4
:101040000BD451B100781061606A401C6062608D01
:10105000401E6085208D401E20852A464946204638
:1010600000F008FF0028CED1208D0028C5D154F80B
:101070003D0B016841F400710160202004F81E0955
:10108000E67766770020C7E7FFE70220C4E70000A5
:10109000020010000000FFFF10B586B00021009193
:1010A00001910291039100680F4988421AD10F4CB7
:1010B000A06940F00800A061A069694600F008003E
:1010C0000490C02000901220019003200390084853
:1010D000FFF788FDE06940F40010E061E06900F48A
:1010E0000010049006B010BD0054004000100240F3
:1010F000000C014002488168027811448160704709
:1011000008000020074810B5016841F01001016097
:10111000032000F075F80F2000F006F800F024F826
:10112000002010BD0020024070B50D4D04464FF464
:101130007A712878B1FBF0F00A490968B1FBF0F048
:1011400000F0DCFA48B9102C07D200222146501ECC
:1011500000F036F800206C6070BD012070BD00000A
:1011600008000020140000200C4808B5816941F0F7
:1011700001018161816901F001010091C16941F0C2
:101180008051C161C06900F08050009004484168FE
:1011900021F0E06141F00071416008BD00100240A3
:1011A00000000140002809DB00F01F0201219140EE
:1011B0004009800000F1E020C0F8001170470000F5
:1011C000F0B40E4B1B680C46C3F30223C3F10705B2
:1011D000042D00D90425191D072901D2002300E0A0
:1011E000DB1E012606FA05F1491E214099409E406A
:1011F000761E16403143F0BC01F0F3B80CED00E070
:10120000064900F0070208684FF6FF03184040EA5D
:101210000220034A10430860704700000CED00E014
:101220000000FA052DE9F0470F46050061D0434E56
:10123000306800F00700B84209D2306820F007009B
:1012400038433060306800F00700B84251D1286858
:101250003B4C810712D5400703D5606840F4E0603D
:1012600060602878000703D5606840F460506060D3
:101270006068A96820F0F000084360602878C00723
:1012800028D06868012810D02168022810D089076A
:1012900000292EDA616821F0030101436160FFF744
:1012A0009BFD804641F288390DE021688903EFE714
:1012B0008901EDE7FFF790FDA0EB0801494502D950
:1012C0000320BDE8F0876068696800F00C00B0EBAF
:1012D000810FEFD1306800F00700B8420BD93068B9
:1012E00020F0070038433060306800F00700B84253
:1012F00001D00120E5E72878400705D56068E96856
:1013000020F4E060084360602878000706D5606834
:10131000296920F4605040EAC100606000F038F8AC
:101320006168084AC1F30311515CC840064908606E
:1013300006480068FFF7F8FE0020C2E700200240E0
:101340000010024046260008140000200C00002077
:101350000448054900684968044AC1F30221515C08
:10136000C8407047140000200010024056260008B4
:101370000448054900684968044AC1F3C221515C28
:10138000C840704714000020001002405626000894
:101390000E4A51680E4801F00C03042B11D0082BA3
:1013A0000FD10C48C1F38343C903C05C0AD551680F
:1013B000084AC1F34041921E515C054A5043B0FBBC
:1013C000F1F07047044948437047000000100240A4
:1013D00000127A003626000800093D002DE9F84F7A
:1013E000040070D02078C04DC00749D06868C0F3B1
:1013F0008100012807D06868C0F38100022809D164
:101400006868C00306D52868800339D5606800285D
:10141000E7D035E06068B0F5803F0BD010B1B0F593
:10142000A02F11D0286820F480302860286820F48C
:10143000802002E0286840F480302860606890B125
:10144000FFF7CAFC06460AE0286840F480202860BE
:10145000F0E700BFFFF7C0FC801B642873D8286842
:101460008003F7D50CE0FFF7B7FC064605E000BFA8
:10147000FFF7B2FC801B6428F0D828688003F7D4FB
:1014800020789A4E80074FF001094FF0000839D5B7
:10149000686810F00C0F07D06868C0F3810002285C
:1014A00009D16868C00306D42868800714D520696C
:1014B000012808D110E02069B0B1C6F80090FFF70C
:1014C0008BFC074605E00AE1FFF786FCC01B0228FB
:1014D000C4D828688007F7D52868616920F0F8002B
:1014E00040EAC10028600DE0C6F80080FFF774FCF8
:1014F000074604E0FFF770FCC01B022823D82868C9
:101500008007F7D4207800072CD57948A169D9B194
:10151000C0F80090FFF760FC074604E0FFF75CFCB2
:10152000C01B02280FD8686A8007F7D571484FF4AE
:10153000FA510068B0FBF1F0009000BF0098411E26
:101540000091FAD20EE080E0C0F80080FFF744FC82
:10155000074604E0FFF740FCC01B022875D8686A04
:101560008007F7D42078400760D5E8690027C000DD
:1015700008D4E86940F08050E861E869012700F08C
:10158000805000905C480168C90513D40168834607
:1015900041F480710160FFF71FFC824606E000BF46
:1015A000FFF71AFCA0EB0A0064284ED8DBF8000015
:1015B000C005F5D5E06801280AD008B1052813D088
:1015C000286A20F001002862286A20F0040002E066
:1015D000286A40F001002862E06841F2883B98B137
:1015E000FFF7FAFB82460BE0286A40F0040028620D
:1015F000EEE700BFFFF7F0FBA0EB0A0159455AD810
:10160000286A8007F6D50CE0FFF7E6FB824605E086
:10161000FFF7E2FBA0EB0A0159454CD8286A800786
:10162000F6D41FB1E86920F08050E861E06988B322
:101630006968C1F38101022944D00228C6F860809C
:1016400004D0FFF7C9FB044638E034E0FFF7C4FBE1
:10165000074604E0FFF7C0FBC01B02282BD8286810
:101660008001F7D4206AB0F5803F05D16868A16891
:1016700020F4003008436860D4E908010843696831
:1016800021F4741108436860C6F86090FFF7A4FB6A
:10169000044606E025E000BFFFF79EFB001B022882
:1016A00009D828688001F7D51BE000BFFFF794FB3D
:1016B000001B022802D90320BDE8F88F28688001AA
:1016C000F4D40EE00128F7D06868226A00F4803173
:1016D000914204D1616A00F47010884201D0012067
:1016E000EAE70020E8E70000001002400000424264
:1016F00080044242140000200070004010B5401EDB
:10170000B0F1807F01D3012010BD4FF0E024606173
:101710000F21601700F065FE0020A0610720206106
:10172000002010BD10B5040003D094F83D0010B1A6
:1017300007E0012010BD002084F83C00204600F0A6
:101740001FF8022084F83D00211D206800F0C6FC2F
:10175000012084F8460084F83E0084F83F0084F8B5
:10176000400084F8410084F8420084F8430084F883
:10177000440084F8450084F83D00002010BD0000BE
:1017800008B500680649884208D10648C16941F099
:101790000401C161C06900F00400009008BD0000B0
:1017A000000800400010024090F83D10012901D0CF
:1017B00001207047022180F83D1000680B498842E3
:1017C00008D0B0F1804F05D00949884202D00949BC
:1017D000884204D1816801F00701062903D001681D
:1017E00041F001010160002070470000002C014021
:1017F000000400400008004070477047F8B50168D9
:1018000004460868CA684B6910F00F0F4FF00005D6
:1018100059D003F0010602F49077374365D0C10731
:1018200005D0D10503D5616C41F001016164410728
:1018300005D5D90703D0616C41F0020161648107CD
:1018400005D5D90703D0616C41F00401616401073B
:1018500007D502F02001314303D0616C41F008014B
:101860006164616C00293AD0800604D5900602D5E7
:10187000204600F09EFC20684069616CC0F3801037
:10188000090700D460B3204600F06CFC2068406972
:10189000400621D52068143050E8001F21F0400197
:1018A00040E80012002AF5D1E06BA8B16D49416310
:1018B000E06BFFF739F9002811D0E06B416B01B004
:1018C000BDE8F040084783060FD593060DD52046A6
:1018D000BDE8F84000F06DBC2046FFF78EFFF8BD74
:1018E0002046FFF78AFF6564F8BD266B2023012E92
:1018F0007CD1C6067AD5D60678D5086848680090A7
:1019000048694FF00206400640D5E16B0868406820
:101910000004000CE8D0A28D8242E5D9E0858869F8
:1019200020282DD020680C3050E8001F21F4807151
:1019300040E80012002AF5D12068143050E8001F5A
:1019400021F0010140E80012002AF5D1206814308E
:1019500050E8001F21F0400140E80012002AF5D1B4
:1019600084F84230256320680C3050E8001F21F0D5
:10197000100140E80012002AF5D1E06BFFF7B1F842
:101980006663A08DE18D401A81B22AE0A08DE18DC1
:10199000401A81B2E08D0028A6D00029A4D0226888
:1019A0000C3252E8000F20F4907042E80007002F3C
:1019B000F5D12068143050E8002F22F0010240E8F1
:1019C0000027002FF5D184F84230256320680C30C1
:1019D00050E8002F22F0100240E80023002BF5D140
:1019E00066632046FFF708FFF8BDFFE705062BD525
:1019F000150629D594F841002128F5D1A068B0F545
:101A0000805F01D12069B0B1206A411C2162216848
:101A100000784860E08C401E0004000CE084E3D1B4
:101A20002068C16821F08001C1602068C16841F070
:101A30004001C160D8E7206A0088C0F30800486010
:101A4000206A801C2062E5E74006CDD55006CBD544
:101A5000CA68204622F04002CA6084F8413000F093
:101A6000A1F9C1E75521000870B5040004D094F82D
:101A70004100002510B106E0012070BD84F84050FF
:101A8000204600F023F8242084F841002068C16833
:101A900021F40051C160204600F0ECFB2068016990
:101AA00021F4904101612068416921F02A014161DE
:101AB0002068C16841F40051C1606564202084F849
:101AC000410084F842006563002070BD30B585B0E8
:101AD00000240094019402940394006818498842F9
:101AE0002BD11848C16941F40031C161C16901F4C9
:101AF00000310491816941F0040181618069124DD6
:101B000000F00400049004200090022001900320C3
:101B1000039069462846FFF765F80820CDE90004E0
:101B2000694628460294FFF75DF8002211462620F8
:101B3000FFF746FB2620FFF735FB05B030BD000060
:101B400000440040001002400008014090F842307C
:101B5000202B01D00220704721B11AB1002303636A
:101B600000F0E4BB012070472DE9F04100683C49DA
:101B700088B0884270D13B483A4C3B4EE41E007816
:101B800061780D280FD00A280DD0092902D270548F
:101B9000491C617008B03448BDE8F0410122314968
:101BA0005438FFF7D3BF0025755430A12E48FEF7F7
:101BB00087FC4FF0FF38B0B12EA12B48FEF780FC18
:101BC000012798B12DA12848FEF77AFCB0B12DA1CC
:101BD0002548FEF775FCB0B104222BA12248FEF780
:101BE000CBFBC8B132E0257029A203E00320A0702E
:101BF00027702AA207CA8DE807001DE0A77027708A
:101C0000142229A104E00220A070277018222BA121
:101C10006846FEF7FCFB0FE0301DFEF781FBA0F5E8
:101C2000FA7142F21C52914212D80346606029A216
:101C30001E216846FEF7EAFA6846FEF77EFB82B28E
:101C4000094843466946543800F05CF86570A1E7DE
:101C50001C2225A1DCE7FFE708B0BDE8F081000009
:101C600000440040030000200801002073746F70DE
:101C700000000000737461727400000074656D7080
:101C80000000000068756D0074696D65000000005B
:101C900053746F707065640D0A00000053746172B4
:101CA0007465640D0A0000004D6F64653A20546548
:101CB0006D70204F6E6C790D0A0000004D6F6465E9
:101CC0003A2048756D6964697479204F6E6C790D9E
:101CD0000A0000004E65772054696D653A2025643E
:101CE000756D730D0A000000496E76616C696420A1
:101CF00054696D6520283530302D31303030302931
:101D00000D0A00002DE9F843044690F8410098467A
:101D100016460D46202802D00220BDE8F88385B182
:101D20007EB100206064212084F84100FFF754F860
:101D3000A6848146E684A0682027B0F5805F02D0A3
:101D400003E00120E9E7206910B12E4600250EE0EE
:101D500000260CE08021204600F003FBA8B9C6B1A4
:101D600016F8010B21684860E08C401EE084E08C8E
:101D70004B464FF00002CDF800800028EAD14FF02A
:101D80004001204600F0EDFA40B184F84170032094
:101D9000C3E735F8020BC0F30800E3E784F84170AD
:101DA0000020BAE77047FEE701684A69D24352054E
:101DB0000FD46FF480624A61002140F8301F202266
:101DC00042738173026942F00402026101730120CF
:101DD0007047002070470000F8B50446C06A1E46F0
:101DE0000D461746082807D0012805D010F5803F7A
:101DF00002D0206B122804D12068016841F4807160
:101E00000160134600224FF001112046009600F0B9
:101E10005DF840B120680068C00502D54FF400703D
:101E200020640320F8BD2069B0F5804F0ED0062055
:101E3000216800EAD51040F0F000086133463A46C8
:101E40000B49204600F08AF878B902E005F0FE0060
:101E500000E0E8B221680861054933463A46891F27
:101E6000204600F07BF80028DCD00120F8BD0000FF
:101E70000800010070B516460D4604461EE02046D7
:101E8000FFF792FF08B1012070BD681C16D0FEF765
:101E9000A3FF801BA84200D885B920684069C043D1
:101EA00040070BD5002044F8300F20216173A07348
:101EB000216941F0200121612073E4E72068406935
:101EC000C0434007DBD4002070BD00002DE9F0477F
:101ED000984617460D460446C1F30746DDF82090A4
:101EE0002AE000BFB8F1FF3F26D0FEF775FFA0EB58
:101EF0000901414502D8B8F1000F1DD12068012E1B
:101F000016D0806925EA00000004000C12D00020E1
:101F1000B84211D1002044F8300F20216173A07322
:101F2000216941F02001216120730120BDE8F08783
:101F30004069E7E70120EBE72068012E0AD08069BD
:101F400025EA00000004000C06D00020B842C9D0E9
:101F50000020EBE74069F3E70120F7E72DE9F047C0
:101F6000984616460D4604464FF000094FF0200AE9
:101F7000C1F3074723E020684069C043400515D4FA
:101F80002068016841F40071016021686FF480608D
:101F90004861C4F8309084F83DA084F83E90216CEC
:101FA00041F00401216484F83C9021E0701C06D0CB
:101FB000FEF712FFA0EB0800B04203D816B1012FC4
:101FC0001FD021E02068012F15D0806925EA00008C
:101FD0000004000C18D000BF44F8309F84F80DA016
:101FE00084F80E90216941F02001216184F80C9061
:101FF0000120BDE8F087406925EA00000004000CDC
:10200000EAD12068406901E02068806925EA000083
:102010000004000CAFD1ECE770B516460D4604463F
:102020001EE02046FFF7C0FE08B1012070BD681C0D
:1020300016D0FEF7D1FE801BA84200D885B92068D3
:102040004069C04300060BD5002044F8300F202122
:102050006173A073216941F0200121612073E4E7DD
:1020600020684069C0430006DBD4002070BDFEE755
:10207000FEE770477047FFF73DB830B58FB02821B5
:102080006846FEF7F6F914210AA8FEF7F2F90121D5
:102090000804CDE900100024029402250491CDE942
:1020A00007504FF4E01009906846FFF797F908B120
:1020B00072B6FEE70F20CDE90A054FF48060CDE946
:1020C0000C4002210AA80E94FFF7ACF8002801D0BA
:1020D00072B6FEE70FB030BD70470000F0B5026881
:1020E000194B1A4C1A4D4FF08047984205D0B84210
:1020F00003D0A04201D0A84203D122F070064A6862
:102100003243984205D0B84203D0A04201D0A84241
:1021100003D122F44074CA6822434C6922F0800241
:10212000224302608A68C2620A688262984201D1D0
:1021300009690163012141610169C90703D001698E
:1021400021F001010161F0BD002C014000040040BC
:102150000008004010B5406A0021C185C184FFF726
:102160004CFB10BD01680C3151E8002F22F4907235
:1021700041E80023002BF5D10168143151E8002F0C
:1021800022F0010241E80023002BF5D1016B012967
:1021900009D101680C3151E8002F22F0100241E80A
:1021A0000023002BF5D1202180F84210002101638B
:1021B000704708B590F84210222901D0022008BDCE
:1021C00082684FF480539A4201D1016921B1816A3A
:1021D0009A421BD04AB10AE00268816A5268C2F38F
:1021E00008020A80816A891C08E0026972B10268EB
:1021F000526802F07F020A70816A491C8162C18DB7
:10220000491E0904090CC18503D01BE0026852680D
:10221000F1E70168CA6822F02002CA600168CA6852
:1022200022F48072CA6001684A6922F001024A61A0
:10223000202180F8421000214163026B012A03D063
:10224000FFF792FC002008BD016301680C3151E8E2
:10225000002F22F0100241E80023002BF5D1016885
:102260000A68D20602D50A6849680091818DFFF795
:10227000C3FAE7E770B5044600680169E26821F433
:102280004051114301612169A06808436169084315
:102290002168CA6841F20C639A430243CA6020680D
:1022A0004169A26921F44071114341611E492068CE
:1022B000884202D1FFF75CF801E0FFF749F800EB34
:1022C000C00101EB0012606864218000B2FBF0F3F2
:1022D000B3FBF1F36FF018067343B2FBF0F5B2FBFA
:1022E000F0F605EB8305322303EB0515B5FBF1F59D
:1022F000B6FBF1F605F0F00505EB0615B2FBF0F6BE
:10230000B2FBF0F0B0FBF1F06FF01802504306EBB7
:10231000800003EB0010B0FBF1F0216800F00F002B
:102320002844886070BD00000038014081628285C9
:10233000C28500214164222180F84210016921B147
:102340000168CA6842F48072CA6001684A6942F052
:1023500001024A610068C16841F02001C1600020AB
:1023600070472DE9F843984617460D460446089EE7
:1023700024E0701C22D0FEF72FFDA0EB0800B04235
:102380001AD8CEB12068C168490717D5802D15D05D
:10239000402D13D00168C94309070FD401680025F7
:1023A000406800902046FFF7DDFE0820606484F856
:1023B00040500120BDE8F8830320FBE72068006857
:1023C00035EA000004D00020B842D2D00020F1E766
:1023D0000120F9E70148FFF711BA0000B40000201E
:1023E000FEE70907090E002804DB00F1E02080F871
:1023F0000014704700F00F0000F1E02080F8141D79
:1024000070470000044900220B685A6209684A6A52
:102410008242FCD3704700006C0000209AB0FEF7A7
:1024200071FEFFF72AFE62480024816941F008012D
:10243000816180694FF4804500F00800049011200C
:10244000CDE9005001200226CDE90206694659482F
:10245000FEF7C8FB5948584901605949C0E90114C1
:10246000C0E9034544618461C4610462FEF7BAFCBB
:1024700008B172B6FEE75148524954300160472115
:10248000C0E901144FF6FF71C0E90314FFF74AF9E0
:102490004A485430FFF788F948484B499C3001605E
:1024A0004FF4E131C0E901140C21C460C0E90441DA
:1024B0008461FFF7D9FA414910234E2201F1E4006B
:1024C0000096FEF7ABF93D48012240499C30FFF7EA
:1024D0003DFB3E4CE41E207800285DD00EA90FA8DD
:1024E000FEF772FA9DF83C0000909DF8383038A253
:1024F000322101A8FDF78AFE01A8FDF71EFF82B276
:102500002E484FF0FF3301A99C30FFF7FBFB2B480F
:10251000E430FEF779F9A078012822D00228274874
:102520004FF00002114600F1E40024D0FEF7C7F995
:102530009DF838202CA110A8FDF754FE1F4810A9C3
:10254000E430FEF7E1F91D4801220021E430FEF7F6
:10255000B6F99DF83C2027A115A8FDF743FE15A963
:1025600012E0164800221146E430FEF7A8F99DF863
:1025700038201DA104E0FEF7A2F99DF83C201DA122
:1025800010A8FDF72FFE10A90C48E430FEF7BCF9A7
:102590006068FEF715FB9EE70848E430FEF734F963
:1025A000064800221146E430FEF789F914A1EBE752
:1025B00000100240000C01400054004018000020B0
:1025C000A0860100000800400044004003000020F5
:1025D00054656D703A20256420432C2048756D3A6F
:1025E00020256425250D0A0054656D703A20256468
:1025F0002043000048756D69643A20256425250054
:1026000053746F707065640010B500290AD00878A3
:10261000002807D005487844FDF752FF002801D074
:10262000002010BD0248784410BD00006A00000080
:1026300062000000010202030405060708090A0BF4
:102640000C0D0E0F10100000000000000000010231
:10265000030406070809000000000102030400004B
:102660009027000800000020180000002801000842
:10267000A827000818000020600700004401000897
:102680001001000043000000F8FFFFFF0040404041
:102690004040404040404141414141404040404035
:1026A00040404040404040404040404040050202E1
:1026B00002020202020202020202020202202020A0
:1026C00020202020202020020202020202029090FC
:1026D00090909090101010101010101010101010FA
:1026E000101010101010101002020202020288884E
:1026F000888888880808080808080808080808085A
:102700000808080808080808020202024000000041
:1027100000000000000000000000000000000000B9
:1027200000000000000000000000000000000000A9
:102730000000000000000000000000000000000099
:102740000000000000000000000000000000000089
:102750000000000000000000000000000000000079
:102760000000000000000000000000000000000069
:102770000000000000000000000000000000000059
:102780000000000000000000000000000000000049
:1027900001000300D007000001000000100000004D
:0827A0000000000000127A00A5
:04000005080000ED02
:00000001FF
